{
  "contractName": "ItemManager",
  "abi": [
    {
      "anonymous": false,
      "inputs": [
        {
          "indexed": false,
          "internalType": "uint256",
          "name": "_itemIndex",
          "type": "uint256"
        },
        {
          "indexed": false,
          "internalType": "uint256",
          "name": "_step",
          "type": "uint256"
        },
        {
          "indexed": false,
          "internalType": "address",
          "name": "_address",
          "type": "address"
        }
      ],
      "name": "SupplyChainStep",
      "type": "event"
    },
    {
      "inputs": [],
      "name": "isOwner",
      "outputs": [
        {
          "internalType": "bool",
          "name": "",
          "type": "bool"
        }
      ],
      "stateMutability": "view",
      "type": "function",
      "constant": true
    },
    {
      "inputs": [
        {
          "internalType": "uint256",
          "name": "",
          "type": "uint256"
        }
      ],
      "name": "items",
      "outputs": [
        {
          "internalType": "contract Item",
          "name": "_item",
          "type": "address"
        },
        {
          "internalType": "enum ItemManager.SupplyChainSteps",
          "name": "_step",
          "type": "uint8"
        },
        {
          "internalType": "string",
          "name": "_identifier",
          "type": "string"
        }
      ],
      "stateMutability": "view",
      "type": "function",
      "constant": true
    },
    {
      "inputs": [],
      "name": "owner",
      "outputs": [
        {
          "internalType": "address",
          "name": "",
          "type": "address"
        }
      ],
      "stateMutability": "view",
      "type": "function",
      "constant": true
    },
    {
      "inputs": [
        {
          "internalType": "string",
          "name": "_identifier",
          "type": "string"
        },
        {
          "internalType": "uint256",
          "name": "_priceInWei",
          "type": "uint256"
        }
      ],
      "name": "createItem",
      "outputs": [],
      "stateMutability": "nonpayable",
      "type": "function"
    },
    {
      "inputs": [
        {
          "internalType": "uint256",
          "name": "_index",
          "type": "uint256"
        }
      ],
      "name": "triggerPayment",
      "outputs": [],
      "stateMutability": "payable",
      "type": "function",
      "payable": true
    },
    {
      "inputs": [
        {
          "internalType": "uint256",
          "name": "_index",
          "type": "uint256"
        }
      ],
      "name": "triggerDelivery",
      "outputs": [],
      "stateMutability": "nonpayable",
      "type": "function"
    }
  ],
  "bytecode": "0x608060405234801561001057600080fd5b50336000806101000a81548173ffffffffffffffffffffffffffffffffffffffff021916908373ffffffffffffffffffffffffffffffffffffffff1602179055506116e4806100606000396000f3fe6080604052600436106200005c5760003560e01c8063800fb83f14620000615780638c55174214620000815780638da5cb5b14620000af5780638f32d59b14620000df578063bfb231d2146200010f578063cd31831e1462000155575b600080fd5b6200007f600480360381019062000079919062000c86565b62000183565b005b3480156200008e57600080fd5b50620000ad6004803603810190620000a7919062000c2c565b620004d5565b005b348015620000bc57600080fd5b50620000c76200070e565b604051620000d6919062000f41565b60405180910390f35b348015620000ec57600080fd5b50620000f762000732565b60405162000106919062000f5e565b60405180910390f35b3480156200011c57600080fd5b506200013b600480360381019062000135919062000c86565b62000789565b6040516200014c9392919062000fb8565b60405180910390f35b3480156200016257600080fd5b506200018160048036038101906200017b919062000c86565b62000870565b005b60006002600083815260200190815260200160002060000160009054906101000a900473ffffffffffffffffffffffffffffffffffffffff1690503373ffffffffffffffffffffffffffffffffffffffff168173ffffffffffffffffffffffffffffffffffffffff16146200022f576040517f08c379a0000000000000000000000000000000000000000000000000000000008152600401620002269062001040565b60405180910390fd5b348173ffffffffffffffffffffffffffffffffffffffff16633c8da5886040518163ffffffff1660e01b815260040160206040518083038186803b1580156200027757600080fd5b505afa1580156200028c573d6000803e3d6000fd5b505050506040513d601f19601f82011682018060405250810190620002b2919062000cb2565b14620002f5576040517f08c379a0000000000000000000000000000000000000000000000000000000008152600401620002ec906200101e565b60405180910390fd5b6000600281111562000330577f4e487b7100000000000000000000000000000000000000000000000000000000600052602160045260246000fd5b60026000600154815260200190815260200160002060000160149054906101000a900460ff1660028111156200038f577f4e487b7100000000000000000000000000000000000000000000000000000000600052602160045260246000fd5b14620003d2576040517f08c379a0000000000000000000000000000000000000000000000000000000008152600401620003c99062001062565b60405180910390fd5b60016002600084815260200190815260200160002060000160146101000a81548160ff0219169083600281111562000433577f4e487b7100000000000000000000000000000000000000000000000000000000600052602160045260246000fd5b02179055507fa4035636e99f06b7651a604c1019fa4e8779fe68ef27eeb74dff2de348f6199b826002600085815260200190815260200160002060000160149054906101000a900460ff166002811115620004b7577f4e487b7100000000000000000000000000000000000000000000000000000000600052602160045260246000fd5b83604051620004c993929190620010a6565b60405180910390a15050565b620004df62000732565b62000521576040517f08c379a0000000000000000000000000000000000000000000000000000000008152600401620005189062001084565b60405180910390fd5b60003082600154604051620005369062000ace565b620005449392919062000f7b565b604051809103906000f08015801562000561573d6000803e3d6000fd5b5090508060026000600154815260200190815260200160002060000160006101000a81548173ffffffffffffffffffffffffffffffffffffffff021916908373ffffffffffffffffffffffffffffffffffffffff160217905550600060026000600154815260200190815260200160002060000160146101000a81548160ff021916908360028111156200061e577f4e487b7100000000000000000000000000000000000000000000000000000000600052602160045260246000fd5b02179055508260026000600154815260200190815260200160002060010190805190602001906200065192919062000adc565b507fa4035636e99f06b7651a604c1019fa4e8779fe68ef27eeb74dff2de348f6199b60015460026000600154815260200190815260200160002060000160149054906101000a900460ff166002811115620006d5577f4e487b7100000000000000000000000000000000000000000000000000000000600052602160045260246000fd5b83604051620006e793929190620010a6565b60405180910390a1600160008154809291906200070490620012a4565b9190505550505050565b60008054906101000a900473ffffffffffffffffffffffffffffffffffffffff1681565b60008060009054906101000a900473ffffffffffffffffffffffffffffffffffffffff1673ffffffffffffffffffffffffffffffffffffffff163373ffffffffffffffffffffffffffffffffffffffff1614905090565b60026020528060005260406000206000915090508060000160009054906101000a900473ffffffffffffffffffffffffffffffffffffffff16908060000160149054906101000a900460ff1690806001018054620007e7906200126e565b80601f016020809104026020016040519081016040528092919081815260200182805462000815906200126e565b8015620008665780601f106200083a5761010080835404028352916020019162000866565b820191906000526020600020905b8154815290600101906020018083116200084857829003601f168201915b5050505050905083565b6200087a62000732565b620008bc576040517f08c379a0000000000000000000000000000000000000000000000000000000008152600401620008b39062001084565b60405180910390fd5b60016002811115620008f7577f4e487b7100000000000000000000000000000000000000000000000000000000600052602160045260246000fd5b6002600083815260200190815260200160002060000160149054906101000a900460ff16600281111562000954577f4e487b7100000000000000000000000000000000000000000000000000000000600052602160045260246000fd5b1462000997576040517f08c379a00000000000000000000000000000000000000000000000000000000081526004016200098e9062000ffc565b60405180910390fd5b600280600083815260200190815260200160002060000160146101000a81548160ff02191690836002811115620009f7577f4e487b7100000000000000000000000000000000000000000000000000000000600052602160045260246000fd5b02179055507fa4035636e99f06b7651a604c1019fa4e8779fe68ef27eeb74dff2de348f6199b816002600084815260200190815260200160002060000160149054906101000a900460ff16600281111562000a7b577f4e487b7100000000000000000000000000000000000000000000000000000000600052602160045260246000fd5b6002600085815260200190815260200160002060000160009054906101000a900473ffffffffffffffffffffffffffffffffffffffff1660405162000ac393929190620010a6565b60405180910390a150565b6102be80620013f183390190565b82805462000aea906200126e565b90600052602060002090601f01602090048101928262000b0e576000855562000b5a565b82601f1062000b2957805160ff191683800117855562000b5a565b8280016001018555821562000b5a579182015b8281111562000b5957825182559160200191906001019062000b3c565b5b50905062000b69919062000b6d565b5090565b5b8082111562000b8857600081600090555060010162000b6e565b5090565b600062000ba362000b9d8462001117565b620010e3565b90508281526020810184848401111562000bbc57600080fd5b62000bc984828562001229565b509392505050565b600082601f83011262000be357600080fd5b813562000bf584826020860162000b8c565b91505092915050565b60008135905062000c0f81620013d6565b92915050565b60008151905062000c2681620013d6565b92915050565b6000806040838503121562000c4057600080fd5b600083013567ffffffffffffffff81111562000c5b57600080fd5b62000c698582860162000bd1565b925050602062000c7c8582860162000bfe565b9150509250929050565b60006020828403121562000c9957600080fd5b600062000ca98482850162000bfe565b91505092915050565b60006020828403121562000cc557600080fd5b600062000cd58482850162000c15565b91505092915050565b62000ce98162001166565b82525050565b62000cfa816200117a565b82525050565b62000d0b81620011c5565b82525050565b62000d1c81620011ed565b82525050565b62000d2d8162001215565b82525050565b600062000d40826200114a565b62000d4c818562001155565b935062000d5e81856020860162001238565b62000d6981620013ae565b840191505092915050565b600062000d8360248362001155565b91507f4974656d206973206675727468657220696e207468652073757070206c79206360008301527f6861696e000000000000000000000000000000000000000000000000000000006020830152604082019050919050565b600062000deb60128362001155565b91507f4e6f742066756c6c7920706169642079657400000000000000000000000000006000830152602082019050919050565b600062000e2d602b8362001155565b91507f4f6e6c79206974656d732061726520616c6c6f77656420746f2075706461746560008301527f207468656d73656c7665730000000000000000000000000000000000000000006020830152604082019050919050565b600062000e9560238362001155565b91507f4974656d206973206675727468657220696e2074686520737570706c7920636860008301527f61696e00000000000000000000000000000000000000000000000000000000006020830152604082019050919050565b600062000efd60168362001155565b91507f596f7520617265206e6f7420746865206f776e65722e000000000000000000006000830152602082019050919050565b62000f3b81620011bb565b82525050565b600060208201905062000f58600083018462000cde565b92915050565b600060208201905062000f75600083018462000cef565b92915050565b600060608201905062000f92600083018662000d00565b62000fa1602083018562000f30565b62000fb0604083018462000f30565b949350505050565b600060608201905062000fcf600083018662000d11565b62000fde602083018562000d22565b818103604083015262000ff2818462000d33565b9050949350505050565b60006020820190508181036000830152620010178162000d74565b9050919050565b60006020820190508181036000830152620010398162000ddc565b9050919050565b600060208201905081810360008301526200105b8162000e1e565b9050919050565b600060208201905081810360008301526200107d8162000e86565b9050919050565b600060208201905081810360008301526200109f8162000eee565b9050919050565b6000606082019050620010bd600083018662000f30565b620010cc602083018562000f30565b620010db604083018462000cde565b949350505050565b6000604051905081810181811067ffffffffffffffff821117156200110d576200110c6200137f565b5b8060405250919050565b600067ffffffffffffffff8211156200113557620011346200137f565b5b601f19601f8301169050602081019050919050565b600081519050919050565b600082825260208201905092915050565b600062001173826200119b565b9050919050565b60008115159050919050565b60008190506200119682620013bf565b919050565b600073ffffffffffffffffffffffffffffffffffffffff82169050919050565b6000819050919050565b6000620011d282620011d9565b9050919050565b6000620011e6826200119b565b9050919050565b6000620011fa8262001201565b9050919050565b60006200120e826200119b565b9050919050565b6000620012228262001186565b9050919050565b82818337600083830152505050565b60005b83811015620012585780820151818401526020810190506200123b565b8381111562001268576000848401525b50505050565b600060028204905060018216806200128757607f821691505b602082108114156200129e576200129d62001350565b5b50919050565b6000620012b182620011bb565b91507fffffffffffffffffffffffffffffffffffffffffffffffffffffffffffffffff821415620012e757620012e6620012f2565b5b600182019050919050565b7f4e487b7100000000000000000000000000000000000000000000000000000000600052601160045260246000fd5b7f4e487b7100000000000000000000000000000000000000000000000000000000600052602160045260246000fd5b7f4e487b7100000000000000000000000000000000000000000000000000000000600052602260045260246000fd5b7f4e487b7100000000000000000000000000000000000000000000000000000000600052604160045260246000fd5b6000601f19601f8301169050919050565b60038110620013d357620013d262001321565b5b50565b620013e181620011bb565b8114620013ed57600080fd5b5056fe608060405234801561001057600080fd5b506040516102be3803806102be833981810160405281019061003291906100b3565b816000819055508060028190555082600360006101000a81548173ffffffffffffffffffffffffffffffffffffffff021916908373ffffffffffffffffffffffffffffffffffffffff16021790555050505061017e565b60008151905061009881610150565b92915050565b6000815190506100ad81610167565b92915050565b6000806000606084860312156100c857600080fd5b60006100d686828701610089565b93505060206100e78682870161009e565b92505060406100f88682870161009e565b9150509250925092565b600061010d82610126565b9050919050565b600061011f82610102565b9050919050565b600073ffffffffffffffffffffffffffffffffffffffff82169050919050565b6000819050919050565b61015981610114565b811461016457600080fd5b50565b61017081610146565b811461017b57600080fd5b50565b6101318061018d6000396000f3fe60806040526004361060335760003560e01c80632986c0e51460475780633c8da58814606d57806389794d00146093576039565b36603957005b348015604457600080fd5b50005b348015605257600080fd5b50605960b9565b6040516064919060d8565b60405180910390f35b348015607857600080fd5b50607f60bf565b604051608a919060d8565b60405180910390f35b348015609e57600080fd5b5060a560c5565b60405160b0919060d8565b60405180910390f35b60025481565b60005481565b60015481565b60d28160f1565b82525050565b600060208201905060eb600083018460cb565b92915050565b600081905091905056fea2646970667358221220a0ce7239de1bbd5ba877fcd388ce60e7b76a68b6d26b0ee6d0377136f1cf6e2964736f6c63430008000033a2646970667358221220e682bf8050da31726ea7dc7d2349948c773c624fc309376ef4a7a11a91df683c64736f6c63430008000033",
  "immutableReferences": {},
  "source": "// SPDX-License-Identifier: MIT\npragma solidity 0.8.0;\n\nimport \"./Item.sol\";\nimport \"./Ownable.sol\";\n\ncontract ItemManager is Ownable{\n    \n    uint index;\n    \n    struct S_Item {\n        Item _item;         \n        ItemManager.SupplyChainSteps _step;         \n        string _identifier;\n    }     \n    \n    enum SupplyChainSteps {Created, Paid, Delivered}\n\n    mapping(uint => S_Item) public items;\n    \n    event SupplyChainStep(uint _itemIndex, uint _step, address _address);          \n    \n    function createItem(string memory _identifier, uint _priceInWei) public onlyOwner {         \n        Item item = new Item(this, _priceInWei, index); \n        items[index]._item = item;\n        items[index]._step = SupplyChainSteps.Created;  \n        items[index]._identifier = _identifier;  \n        emit SupplyChainStep(index, uint(items[index]._step), address(item));         \n        index++;\n    }\n    \n    function triggerPayment(uint _index) public payable {         \n        Item item = items[_index]._item;         \n        require(address(item) == msg.sender, \"Only items are allowed to update themselves\" );         \n        require(item.priceInWei() == msg.value, \"Not fully paid yet\");         \n        require(items[index]._step == SupplyChainSteps.Created, \"Item is further in the supply chain\");         \n        items[_index]._step = SupplyChainSteps.Paid;         \n        emit SupplyChainStep(_index, uint(items[_index]._step), address(item));     \n        \n    }\n    \n    function triggerDelivery(uint _index) public onlyOwner {         \n        require(items[_index]._step == SupplyChainSteps.Paid, \"Item is further in the supp ly chain\");         \n        items[_index]._step = SupplyChainSteps.Delivered;         \n        emit SupplyChainStep(_index, uint(items[_index]._step), address(items[_index]._item));    \n        }\n}",
  "sourcePath": "C:\\Users\\hasan\\Downloads\\New folder (5)\\TRUFFLE_STATER_KIT_DAPP\\contracts\\ItemManager.sol",
  "compiler": {
    "name": "solc",
    "version": "0.8.0+commit.c7dfd78e.Emscripten.clang"
  },
  "schemaVersion": "3.4.1",
  "updatedAt": "2021-10-18T18:28:40.235Z",
  "networkType": "ethereum",
  "devdoc": {
    "kind": "dev",
    "methods": {},
    "version": 1
  },
  "userdoc": {
    "kind": "user",
    "methods": {},
    "version": 1
  }
}