{
  "contractName": "crowdSale",
  "abi": [
    {
      "inputs": [
        {
          "internalType": "address",
          "name": "_tokenContractAddress",
          "type": "address"
        },
        {
          "internalType": "uint256",
          "name": "_tokenPrice",
          "type": "uint256"
        }
      ],
      "stateMutability": "nonpayable",
      "type": "constructor"
    },
    {
      "anonymous": false,
      "inputs": [
        {
          "indexed": false,
          "internalType": "address",
          "name": "_buyer",
          "type": "address"
        },
        {
          "indexed": false,
          "internalType": "uint256",
          "name": "_amount",
          "type": "uint256"
        }
      ],
      "name": "Sell",
      "type": "event"
    },
    {
      "inputs": [],
      "name": "admin",
      "outputs": [
        {
          "internalType": "address",
          "name": "",
          "type": "address"
        }
      ],
      "stateMutability": "view",
      "type": "function",
      "constant": true
    },
    {
      "inputs": [],
      "name": "tokenContract",
      "outputs": [
        {
          "internalType": "contract TOKEN",
          "name": "",
          "type": "address"
        }
      ],
      "stateMutability": "view",
      "type": "function",
      "constant": true
    },
    {
      "inputs": [],
      "name": "tokenPrice",
      "outputs": [
        {
          "internalType": "uint256",
          "name": "",
          "type": "uint256"
        }
      ],
      "stateMutability": "view",
      "type": "function",
      "constant": true
    },
    {
      "inputs": [],
      "name": "tokensSold",
      "outputs": [
        {
          "internalType": "uint256",
          "name": "",
          "type": "uint256"
        }
      ],
      "stateMutability": "view",
      "type": "function",
      "constant": true
    },
    {
      "stateMutability": "payable",
      "type": "receive",
      "payable": true
    },
    {
      "inputs": [],
      "name": "buyTokens",
      "outputs": [],
      "stateMutability": "payable",
      "type": "function",
      "payable": true
    },
    {
      "inputs": [],
      "name": "withDrawBNB",
      "outputs": [],
      "stateMutability": "nonpayable",
      "type": "function"
    },
    {
      "inputs": [
        {
          "internalType": "address",
          "name": "account",
          "type": "address"
        }
      ],
      "name": "balanceOf",
      "outputs": [
        {
          "internalType": "uint256",
          "name": "",
          "type": "uint256"
        }
      ],
      "stateMutability": "view",
      "type": "function",
      "constant": true
    },
    {
      "inputs": [],
      "name": "endSale",
      "outputs": [],
      "stateMutability": "nonpayable",
      "type": "function"
    },
    {
      "inputs": [
        {
          "internalType": "uint256",
          "name": "_Price",
          "type": "uint256"
        }
      ],
      "name": "tokenPriceUpdate",
      "outputs": [
        {
          "internalType": "bool",
          "name": "",
          "type": "bool"
        }
      ],
      "stateMutability": "nonpayable",
      "type": "function"
    },
    {
      "inputs": [],
      "name": "getContractBalance",
      "outputs": [
        {
          "internalType": "uint256",
          "name": "",
          "type": "uint256"
        }
      ],
      "stateMutability": "view",
      "type": "function",
      "constant": true
    },
    {
      "inputs": [],
      "name": "getContractHT",
      "outputs": [
        {
          "internalType": "uint256",
          "name": "",
          "type": "uint256"
        }
      ],
      "stateMutability": "view",
      "type": "function",
      "constant": true
    },
    {
      "inputs": [],
      "name": "getContractAddress",
      "outputs": [
        {
          "internalType": "address",
          "name": "",
          "type": "address"
        }
      ],
      "stateMutability": "view",
      "type": "function",
      "constant": true
    }
  ],
  "bytecode": "0x60806040523480156200001157600080fd5b5060405162001330380380620013308339818101604052810190620000379190620000f5565b336000806101000a81548173ffffffffffffffffffffffffffffffffffffffff021916908373ffffffffffffffffffffffffffffffffffffffff16021790555081600160006101000a81548173ffffffffffffffffffffffffffffffffffffffff021916908373ffffffffffffffffffffffffffffffffffffffff160217905550806002819055505050620001a8565b600081519050620000d88162000174565b92915050565b600081519050620000ef816200018e565b92915050565b600080604083850312156200010957600080fd5b60006200011985828601620000c7565b92505060206200012c85828601620000de565b9150509250929050565b600062000143826200014a565b9050919050565b600073ffffffffffffffffffffffffffffffffffffffff82169050919050565b6000819050919050565b6200017f8162000136565b81146200018b57600080fd5b50565b62000199816200016a565b8114620001a557600080fd5b50565b61117880620001b86000396000f3fe6080604052600436106100ab5760003560e01c806361eb05f61161006457806361eb05f6146101a35780636f9fb98a146101ce57806370a08231146101f95780637ff9b59614610236578063d0febe4c14610261578063f851a4401461026b576100b2565b80631eb7b066146100b757806326b52ab6146100ce57806332a2c5d01461010b578063380d831b14610136578063518ab2a81461014d57806355a373d614610178576100b2565b366100b257005b600080fd5b3480156100c357600080fd5b506100cc610296565b005b3480156100da57600080fd5b506100f560048036038101906100f09190610bcc565b6103d0565b6040516101029190610e50565b60405180910390f35b34801561011757600080fd5b50610120610471565b60405161012d9190610e0c565b60405180910390f35b34801561014257600080fd5b5061014b610479565b005b34801561015957600080fd5b50610162610683565b60405161016f9190610f26565b60405180910390f35b34801561018457600080fd5b5061018d610689565b60405161019a9190610e6b565b60405180910390f35b3480156101af57600080fd5b506101b86106af565b6040516101c59190610f26565b60405180910390f35b3480156101da57600080fd5b506101e3610761565b6040516101f09190610f26565b60405180910390f35b34801561020557600080fd5b50610220600480360381019061021b9190610b7a565b610769565b60405161022d9190610f26565b60405180910390f35b34801561024257600080fd5b5061024b61081d565b6040516102589190610f26565b60405180910390f35b610269610823565b005b34801561027757600080fd5b50610280610b02565b60405161028d9190610e0c565b60405180910390f35b60008054906101000a900473ffffffffffffffffffffffffffffffffffffffff1673ffffffffffffffffffffffffffffffffffffffff163373ffffffffffffffffffffffffffffffffffffffff1614610324576040517f08c379a000000000000000000000000000000000000000000000000000000000815260040161031b90610f06565b60405180910390fd5b60004711610367576040517f08c379a000000000000000000000000000000000000000000000000000000000815260040161035e90610ec6565b60405180910390fd5b60008054906101000a900473ffffffffffffffffffffffffffffffffffffffff1673ffffffffffffffffffffffffffffffffffffffff166108fc479081150290604051600060405180830381858888f193505050501580156103cd573d6000803e3d6000fd5b50565b60008060009054906101000a900473ffffffffffffffffffffffffffffffffffffffff1673ffffffffffffffffffffffffffffffffffffffff163373ffffffffffffffffffffffffffffffffffffffff1614610461576040517f08c379a000000000000000000000000000000000000000000000000000000000815260040161045890610ea6565b60405180910390fd5b8160028190555060019050919050565b600030905090565b60008054906101000a900473ffffffffffffffffffffffffffffffffffffffff1673ffffffffffffffffffffffffffffffffffffffff163373ffffffffffffffffffffffffffffffffffffffff1614610507576040517f08c379a00000000000000000000000000000000000000000000000000000000081526004016104fe90610f06565b60405180910390fd5b600160009054906101000a900473ffffffffffffffffffffffffffffffffffffffff1673ffffffffffffffffffffffffffffffffffffffff1663a9059cbb60008054906101000a900473ffffffffffffffffffffffffffffffffffffffff16600160009054906101000a900473ffffffffffffffffffffffffffffffffffffffff1673ffffffffffffffffffffffffffffffffffffffff166370a08231306040518263ffffffff1660e01b81526004016105c19190610e0c565b60206040518083038186803b1580156105d957600080fd5b505afa1580156105ed573d6000803e3d6000fd5b505050506040513d601f19601f820116820180604052508101906106119190610bf5565b6040518363ffffffff1660e01b815260040161062e929190610e27565b602060405180830381600087803b15801561064857600080fd5b505af115801561065c573d6000803e3d6000fd5b505050506040513d601f19601f820116820180604052508101906106809190610ba3565b50565b60035481565b600160009054906101000a900473ffffffffffffffffffffffffffffffffffffffff1681565b6000600160009054906101000a900473ffffffffffffffffffffffffffffffffffffffff1673ffffffffffffffffffffffffffffffffffffffff166370a08231306040518263ffffffff1660e01b815260040161070c9190610e0c565b60206040518083038186803b15801561072457600080fd5b505afa158015610738573d6000803e3d6000fd5b505050506040513d601f19601f8201168201806040525081019061075c9190610bf5565b905090565b600047905090565b6000600160009054906101000a900473ffffffffffffffffffffffffffffffffffffffff1673ffffffffffffffffffffffffffffffffffffffff166370a08231836040518263ffffffff1660e01b81526004016107c69190610e0c565b60206040518083038186803b1580156107de57600080fd5b505afa1580156107f2573d6000803e3d6000fd5b505050506040513d601f19601f820116820180604052508101906108169190610bf5565b9050919050565b60025481565b6000600254346108339190610fa8565b9050670de0b6b3a7640000816108499190610fd9565b600160009054906101000a900473ffffffffffffffffffffffffffffffffffffffff1673ffffffffffffffffffffffffffffffffffffffff166370a08231306040518263ffffffff1660e01b81526004016108a49190610e0c565b60206040518083038186803b1580156108bc57600080fd5b505afa1580156108d0573d6000803e3d6000fd5b505050506040513d601f19601f820116820180604052508101906108f49190610bf5565b1015610935576040517f08c379a000000000000000000000000000000000000000000000000000000000815260040161092c90610ee6565b60405180910390fd5b60008054906101000a900473ffffffffffffffffffffffffffffffffffffffff1673ffffffffffffffffffffffffffffffffffffffff163373ffffffffffffffffffffffffffffffffffffffff1614156109c4576040517f08c379a00000000000000000000000000000000000000000000000000000000081526004016109bb90610e86565b60405180910390fd5b600160009054906101000a900473ffffffffffffffffffffffffffffffffffffffff1673ffffffffffffffffffffffffffffffffffffffff1663a9059cbb33670de0b6b3a764000084610a179190610fd9565b6040518363ffffffff1660e01b8152600401610a34929190610e27565b602060405180830381600087803b158015610a4e57600080fd5b505af1158015610a62573d6000803e3d6000fd5b505050506040513d601f19601f82011682018060405250810190610a869190610ba3565b50670de0b6b3a764000081610a9b9190610fd9565b60036000828254610aac9190610f52565b925050819055507f5e5e995ce3133561afceaa51a9a154d5db228cd7525d34df5185582c18d3df0933670de0b6b3a764000083610ae99190610fd9565b604051610af7929190610e27565b60405180910390a150565b60008054906101000a900473ffffffffffffffffffffffffffffffffffffffff1681565b600081359050610b35816110fd565b92915050565b600081519050610b4a81611114565b92915050565b600081359050610b5f8161112b565b92915050565b600081519050610b748161112b565b92915050565b600060208284031215610b8c57600080fd5b6000610b9a84828501610b26565b91505092915050565b600060208284031215610bb557600080fd5b6000610bc384828501610b3b565b91505092915050565b600060208284031215610bde57600080fd5b6000610bec84828501610b50565b91505092915050565b600060208284031215610c0757600080fd5b6000610c1584828501610b65565b91505092915050565b610c2781611033565b82525050565b610c3681611045565b82525050565b610c458161107b565b82525050565b6000610c58602783610f41565b91507f796f75206172652061646d696e20796f752063616e6e6f742062757920796f7560008301527f7220746f6b656e000000000000000000000000000000000000000000000000006020830152604082019050919050565b6000610cbe603083610f41565b91507f796f7520617265206e6f7420617574686f72697a656420746f206368616e676560008301527f2074686520746f6b656e207072696365000000000000000000000000000000006020830152604082019050919050565b6000610d24601c83610f41565b91507f796f752068617665206e6f7420626e6220696e20636f6e7472616374000000006000830152602082019050919050565b6000610d64602683610f41565b91507f736d61727420636f6e747261637420646f6e7420686f6c6420656e6f7567682060008301527f746f6b656e7300000000000000000000000000000000000000000000000000006020830152604082019050919050565b6000610dca601183610f41565b91507f796f7520617265206e6f742061646d696e0000000000000000000000000000006000830152602082019050919050565b610e0681611071565b82525050565b6000602082019050610e216000830184610c1e565b92915050565b6000604082019050610e3c6000830185610c1e565b610e496020830184610dfd565b9392505050565b6000602082019050610e656000830184610c2d565b92915050565b6000602082019050610e806000830184610c3c565b92915050565b60006020820190508181036000830152610e9f81610c4b565b9050919050565b60006020820190508181036000830152610ebf81610cb1565b9050919050565b60006020820190508181036000830152610edf81610d17565b9050919050565b60006020820190508181036000830152610eff81610d57565b9050919050565b60006020820190508181036000830152610f1f81610dbd565b9050919050565b6000602082019050610f3b6000830184610dfd565b92915050565b600082825260208201905092915050565b6000610f5d82611071565b9150610f6883611071565b9250827fffffffffffffffffffffffffffffffffffffffffffffffffffffffffffffffff03821115610f9d57610f9c61109f565b5b828201905092915050565b6000610fb382611071565b9150610fbe83611071565b925082610fce57610fcd6110ce565b5b828204905092915050565b6000610fe482611071565b9150610fef83611071565b9250817fffffffffffffffffffffffffffffffffffffffffffffffffffffffffffffffff04831182151516156110285761102761109f565b5b828202905092915050565b600061103e82611051565b9050919050565b60008115159050919050565b600073ffffffffffffffffffffffffffffffffffffffff82169050919050565b6000819050919050565b60006110868261108d565b9050919050565b600061109882611051565b9050919050565b7f4e487b7100000000000000000000000000000000000000000000000000000000600052601160045260246000fd5b7f4e487b7100000000000000000000000000000000000000000000000000000000600052601260045260246000fd5b61110681611033565b811461111157600080fd5b50565b61111d81611045565b811461112857600080fd5b50565b61113481611071565b811461113f57600080fd5b5056fea2646970667358221220ab7c31743a37fef7245b5b8640cf3e1a9fef30899b1f15a25ffb26652081897964736f6c63430008000033",
  "immutableReferences": {},
  "source": "// SPDX-License-Identifier: MIT\r\npragma solidity ^0.8.0;\r\n\r\n\r\nimport \"./Token.sol\";\r\n\r\ncontract crowdSale {\r\n\r\n    address public admin;             \r\n    TOKEN public tokenContract;   \r\n    uint256 public tokenPrice;          \r\n    uint256 public tokensSold;\r\n    event Sell(address _buyer,uint256 _amount);  \r\n\r\n    constructor(address _tokenContractAddress, uint256 _tokenPrice) {\r\n        //assign an admin\r\n        admin =msg.sender;      \r\n        //Token contract\r\n        tokenContract = TOKEN(_tokenContractAddress);   \r\n        //Token Price\\\r\n        tokenPrice = _tokenPrice;    \r\n    }\r\n\r\n    \r\n\r\n    //Buy Tokens\r\n    function buyTokens() public payable {\r\n          uint256    amount =msg.value / tokenPrice;\r\n            //require that the contract has enough tokens or not\r\n        require(tokenContract.balanceOf(address(this)) >=  amount*10**18 ,'smart contract dont hold enough tokens');\r\n        require(msg.sender != admin,'you are admin you cannot buy your token' );\r\n        \r\n        // transfer the tokens to user\r\n        tokenContract.transfer(msg.sender, amount*10**18 );\r\n        //keep track of tokensSold\r\n          tokensSold +=  amount*10**18 ;\r\n        //triger Sell Event\r\n       emit Sell(msg.sender, amount*10**18 );\r\n \r\n\r\n    }\r\n    \r\n    \r\n        function withDrawBNB() public{\r\n        require(msg.sender == admin,'you are not admin');\r\n        require(address(this).balance > 0,'you have not bnb in contract');\r\n        payable(admin).transfer(address(this).balance);\r\n         \r\n\r\n    }\r\n        function balanceOf(address account) public view returns(uint){\r\n             return tokenContract.balanceOf(account);\r\n         }\r\n         \r\n     \r\n\r\n   function endSale() public   {\r\n        //Require admin ,check if admin has clicked the function\r\n        require(msg.sender == admin,'you are not admin');\r\n         // require(tokenContract.balanceOf(address(this)) > 0 ,'smart contract dont hold enough tokens');\r\n        //Transfer remaining dapp tokens to admin\r\n         tokenContract.transfer(admin, tokenContract.balanceOf(address(this)));\r\n        //  selfdestruct(payable(admin));\r\n        \r\n         \r\n        \r\n    }\r\n    \r\n     function tokenPriceUpdate(uint256 _Price)public  returns(bool){\r\n        require(msg.sender == admin, \"you are not authorized to change the token price\");\r\n        tokenPrice=_Price;\r\n        return true;\r\n    }\r\n         \r\n\r\n           function getContractBalance() public view returns(uint) {\r\n        return address(this).balance;\r\n          }\r\n          \r\n            function getContractHT() public view returns(uint256) {\r\n        return tokenContract.balanceOf(address(this));\r\n          }\r\n    \r\n    \r\n       function getContractAddress() public view returns(address) {\r\n        return address(this);\r\n          }\r\n          \r\n        \r\n\r\n     \r\n     receive() external payable{\r\n         \r\n     }\r\n    \r\n}",
  "sourcePath": "D:/ASAD_PROJECT_CROWDSALE_in_Contextapi/client1/contracts/crowdSale.sol",
  "compiler": {
    "name": "solc",
    "version": "0.8.0+commit.c7dfd78e.Emscripten.clang"
  },
  "schemaVersion": "3.4.1",
  "updatedAt": "2021-11-10T23:42:30.680Z",
  "networkType": "ethereum",
  "devdoc": {
    "kind": "dev",
    "methods": {},
    "version": 1
  },
  "userdoc": {
    "kind": "user",
    "methods": {},
    "version": 1
  }
}