{
  "contractName": "DaughterContract",
  "abi": [
    {
      "inputs": [
        {
          "internalType": "string",
          "name": "_daughtersName",
          "type": "string"
        },
        {
          "internalType": "uint256",
          "name": "_daughtersAge",
          "type": "uint256"
        }
      ],
      "stateMutability": "nonpayable",
      "type": "constructor"
    },
    {
      "anonymous": false,
      "inputs": [
        {
          "indexed": true,
          "internalType": "address",
          "name": "previousOwner",
          "type": "address"
        },
        {
          "indexed": true,
          "internalType": "address",
          "name": "newOwner",
          "type": "address"
        }
      ],
      "name": "OwnershipTransferred",
      "type": "event"
    },
    {
      "inputs": [],
      "name": "age",
      "outputs": [
        {
          "internalType": "uint256",
          "name": "",
          "type": "uint256"
        }
      ],
      "stateMutability": "view",
      "type": "function"
    },
    {
      "inputs": [],
      "name": "allowance",
      "outputs": [
        {
          "internalType": "uint256",
          "name": "",
          "type": "uint256"
        }
      ],
      "stateMutability": "view",
      "type": "function"
    },
    {
      "inputs": [],
      "name": "canDate",
      "outputs": [
        {
          "internalType": "bool",
          "name": "",
          "type": "bool"
        }
      ],
      "stateMutability": "view",
      "type": "function"
    },
    {
      "inputs": [],
      "name": "name",
      "outputs": [
        {
          "internalType": "string",
          "name": "",
          "type": "string"
        }
      ],
      "stateMutability": "view",
      "type": "function"
    },
    {
      "inputs": [],
      "name": "owner",
      "outputs": [
        {
          "internalType": "address",
          "name": "",
          "type": "address"
        }
      ],
      "stateMutability": "view",
      "type": "function"
    },
    {
      "inputs": [],
      "name": "renounceOwnership",
      "outputs": [],
      "stateMutability": "nonpayable",
      "type": "function"
    },
    {
      "inputs": [
        {
          "internalType": "address",
          "name": "newOwner",
          "type": "address"
        }
      ],
      "name": "transferOwnership",
      "outputs": [],
      "stateMutability": "nonpayable",
      "type": "function"
    },
    {
      "inputs": [],
      "name": "permissionToDate",
      "outputs": [],
      "stateMutability": "nonpayable",
      "type": "function"
    },
    {
      "inputs": [],
      "name": "howMuch",
      "outputs": [
        {
          "internalType": "uint256",
          "name": "",
          "type": "uint256"
        }
      ],
      "stateMutability": "view",
      "type": "function"
    }
  ],
  "bytecode": "0x60806040523480156200001157600080fd5b5060405162000cfa38038062000cfa8339818101604052810190620000379190620002a7565b620000576200004b620000a260201b60201c565b620000aa60201b60201c565b81600190805190602001906200006f9291906200016e565b50806002819055506000600360006101000a81548160ff0219169083151502179055506064600481905550505062000456565b600033905090565b60008060009054906101000a900473ffffffffffffffffffffffffffffffffffffffff169050816000806101000a81548173ffffffffffffffffffffffffffffffffffffffff021916908373ffffffffffffffffffffffffffffffffffffffff1602179055508173ffffffffffffffffffffffffffffffffffffffff168173ffffffffffffffffffffffffffffffffffffffff167f8be0079c531659141344cd1fd0a4f28419497f9722a3daafe3b4186f6b6457e060405160405180910390a35050565b8280546200017c90620003a8565b90600052602060002090601f016020900481019282620001a05760008555620001ec565b82601f10620001bb57805160ff1916838001178555620001ec565b82800160010185558215620001ec579182015b82811115620001eb578251825591602001919060010190620001ce565b5b509050620001fb9190620001ff565b5090565b5b808211156200021a57600081600090555060010162000200565b5090565b6000620002356200022f8462000335565b62000301565b9050828152602081018484840111156200024e57600080fd5b6200025b84828562000372565b509392505050565b600082601f8301126200027557600080fd5b8151620002878482602086016200021e565b91505092915050565b600081519050620002a1816200043c565b92915050565b60008060408385031215620002bb57600080fd5b600083015167ffffffffffffffff811115620002d657600080fd5b620002e48582860162000263565b9250506020620002f78582860162000290565b9150509250929050565b6000604051905081810181811067ffffffffffffffff821117156200032b576200032a6200040d565b5b8060405250919050565b600067ffffffffffffffff8211156200035357620003526200040d565b5b601f19601f8301169050602081019050919050565b6000819050919050565b60005b838110156200039257808201518184015260208101905062000375565b83811115620003a2576000848401525b50505050565b60006002820490506001821680620003c157607f821691505b60208210811415620003d857620003d7620003de565b5b50919050565b7f4e487b7100000000000000000000000000000000000000000000000000000000600052602260045260246000fd5b7f4e487b7100000000000000000000000000000000000000000000000000000000600052604160045260246000fd5b620004478162000368565b81146200045357600080fd5b50565b61089480620004666000396000f3fe608060405234801561001057600080fd5b50600436106100935760003560e01c80638da5cb5b116100665780638da5cb5b146100fc578063942b58a81461011a578063c296784e14610138578063de242ff414610142578063f2fde38b1461016057610093565b806306fdde0314610098578063262a9dff146100b65780633c8f61bf146100d4578063715018a6146100f2575b600080fd5b6100a061017c565b6040516100ad91906106c1565b60405180910390f35b6100be61020a565b6040516100cb9190610723565b60405180910390f35b6100dc610210565b6040516100e991906106a6565b60405180910390f35b6100fa610223565b005b6101046102ab565b604051610111919061068b565b60405180910390f35b6101226102d4565b60405161012f9190610723565b60405180910390f35b6101406102de565b005b61014a610377565b6040516101579190610723565b60405180910390f35b61017a60048036038101906101759190610556565b61037d565b005b60018054610189906107d5565b80601f01602080910402602001604051908101604052809291908181526020018280546101b5906107d5565b80156102025780601f106101d757610100808354040283529160200191610202565b820191906000526020600020905b8154815290600101906020018083116101e557829003601f168201915b505050505081565b60025481565b600360009054906101000a900460ff1681565b61022b610475565b73ffffffffffffffffffffffffffffffffffffffff166102496102ab565b73ffffffffffffffffffffffffffffffffffffffff161461029f576040517f08c379a000000000000000000000000000000000000000000000000000000000815260040161029690610703565b60405180910390fd5b6102a9600061047d565b565b60008060009054906101000a900473ffffffffffffffffffffffffffffffffffffffff16905090565b6000600454905090565b6102e6610475565b73ffffffffffffffffffffffffffffffffffffffff166103046102ab565b73ffffffffffffffffffffffffffffffffffffffff161461035a576040517f08c379a000000000000000000000000000000000000000000000000000000000815260040161035190610703565b60405180910390fd5b6001600360006101000a81548160ff021916908315150217905550565b60045481565b610385610475565b73ffffffffffffffffffffffffffffffffffffffff166103a36102ab565b73ffffffffffffffffffffffffffffffffffffffff16146103f9576040517f08c379a00000000000000000000000000000000000000000000000000000000081526004016103f090610703565b60405180910390fd5b600073ffffffffffffffffffffffffffffffffffffffff168173ffffffffffffffffffffffffffffffffffffffff161415610469576040517f08c379a0000000000000000000000000000000000000000000000000000000008152600401610460906106e3565b60405180910390fd5b6104728161047d565b50565b600033905090565b60008060009054906101000a900473ffffffffffffffffffffffffffffffffffffffff169050816000806101000a81548173ffffffffffffffffffffffffffffffffffffffff021916908373ffffffffffffffffffffffffffffffffffffffff1602179055508173ffffffffffffffffffffffffffffffffffffffff168173ffffffffffffffffffffffffffffffffffffffff167f8be0079c531659141344cd1fd0a4f28419497f9722a3daafe3b4186f6b6457e060405160405180910390a35050565b60008135905061055081610847565b92915050565b60006020828403121561056857600080fd5b600061057684828501610541565b91505092915050565b6105888161075a565b82525050565b6105978161076c565b82525050565b60006105a88261073e565b6105b28185610749565b93506105c28185602086016107a2565b6105cb81610836565b840191505092915050565b60006105e3602683610749565b91507f4f776e61626c653a206e6577206f776e657220697320746865207a65726f206160008301527f64647265737300000000000000000000000000000000000000000000000000006020830152604082019050919050565b6000610649602083610749565b91507f4f776e61626c653a2063616c6c6572206973206e6f7420746865206f776e65726000830152602082019050919050565b61068581610798565b82525050565b60006020820190506106a0600083018461057f565b92915050565b60006020820190506106bb600083018461058e565b92915050565b600060208201905081810360008301526106db818461059d565b905092915050565b600060208201905081810360008301526106fc816105d6565b9050919050565b6000602082019050818103600083015261071c8161063c565b9050919050565b6000602082019050610738600083018461067c565b92915050565b600081519050919050565b600082825260208201905092915050565b600061076582610778565b9050919050565b60008115159050919050565b600073ffffffffffffffffffffffffffffffffffffffff82169050919050565b6000819050919050565b60005b838110156107c05780820151818401526020810190506107a5565b838111156107cf576000848401525b50505050565b600060028204905060018216806107ed57607f821691505b6020821081141561080157610800610807565b5b50919050565b7f4e487b7100000000000000000000000000000000000000000000000000000000600052602260045260246000fd5b6000601f19601f8301169050919050565b6108508161075a565b811461085b57600080fd5b5056fea264697066735822122095103c5979cc61254a5f885a03639e1a1dccf6efdd9f55a4c7410bee05f8bb5b64736f6c63430008000033",
  "immutableReferences": {},
  "source": "// SPDX-License-Identifier: MIT\r\n\r\npragma solidity ^0.8.0;\r\n\r\n\r\nimport \"./Ownable.sol\";\r\nimport \"./SonContract.sol\";\r\n\r\ncontract DaughterContract is Ownable {\r\n\r\n  string public name;\r\n  uint public age;\r\n  bool public canDate;\r\n  uint public allowance;\r\n\r\n  constructor(\r\n    string memory _daughtersName,\r\n    uint _daughtersAge\r\n  ) \r\n\r\n  {\r\n    name = _daughtersName;\r\n    age = _daughtersAge;\r\n    canDate = false;\r\n    allowance = 100;\r\n  }\r\n\r\n  function permissionToDate() public onlyOwner {\r\n    canDate = true;\r\n  }\r\n\r\n  function howMuch() public view returns (uint) {\r\n    return allowance;\r\n  }\r\n\r\n}",
  "sourcePath": "D:\\MAIN Code Generative Art for NFT AND Tokens EXamples\\ECR20_Inheritance_contract(parent-child)\\truffle\\contracts\\DaughterContract.sol",
  "compiler": {
    "name": "solc",
    "version": "0.8.0+commit.c7dfd78e.Emscripten.clang"
  },
  "schemaVersion": "3.4.1",
  "updatedAt": "2021-10-17T11:23:43.758Z",
  "devdoc": {
    "kind": "dev",
    "methods": {
      "owner()": {
        "details": "Returns the address of the current owner."
      },
      "renounceOwnership()": {
        "details": "Leaves the contract without owner. It will not be possible to call `onlyOwner` functions anymore. Can only be called by the current owner. NOTE: Renouncing ownership will leave the contract without an owner, thereby removing any functionality that is only available to the owner."
      },
      "transferOwnership(address)": {
        "details": "Transfers ownership of the contract to a new account (`newOwner`). Can only be called by the current owner."
      }
    },
    "version": 1
  },
  "userdoc": {
    "kind": "user",
    "methods": {},
    "version": 1
  }
}