{
  "contractName": "MomContract",
  "abi": [
    {
      "inputs": [
        {
          "internalType": "string",
          "name": "_momsName",
          "type": "string"
        },
        {
          "internalType": "uint256",
          "name": "_momsAge",
          "type": "uint256"
        },
        {
          "internalType": "string",
          "name": "_daughtersName",
          "type": "string"
        },
        {
          "internalType": "uint256",
          "name": "_daughtersAge",
          "type": "uint256"
        },
        {
          "internalType": "string",
          "name": "_sonsName",
          "type": "string"
        },
        {
          "internalType": "uint256",
          "name": "_sonsAge",
          "type": "uint256"
        }
      ],
      "stateMutability": "nonpayable",
      "type": "constructor"
    },
    {
      "inputs": [],
      "name": "age",
      "outputs": [
        {
          "internalType": "uint256",
          "name": "",
          "type": "uint256"
        }
      ],
      "stateMutability": "view",
      "type": "function"
    },
    {
      "inputs": [],
      "name": "daughter",
      "outputs": [
        {
          "internalType": "contract DaughterContract",
          "name": "",
          "type": "address"
        }
      ],
      "stateMutability": "view",
      "type": "function"
    },
    {
      "inputs": [],
      "name": "name",
      "outputs": [
        {
          "internalType": "string",
          "name": "",
          "type": "string"
        }
      ],
      "stateMutability": "view",
      "type": "function"
    },
    {
      "inputs": [],
      "name": "son",
      "outputs": [
        {
          "internalType": "contract SonContract",
          "name": "",
          "type": "address"
        }
      ],
      "stateMutability": "view",
      "type": "function"
    },
    {
      "inputs": [],
      "name": "allowDaughterToDate",
      "outputs": [],
      "stateMutability": "nonpayable",
      "type": "function"
    },
    {
      "inputs": [],
      "name": "allowSonToDate",
      "outputs": [],
      "stateMutability": "nonpayable",
      "type": "function"
    },
    {
      "inputs": [],
      "name": "getAge",
      "outputs": [
        {
          "internalType": "uint256",
          "name": "",
          "type": "uint256"
        }
      ],
      "stateMutability": "view",
      "type": "function"
    }
  ],
  "bytecode": "0x60806040523480156200001157600080fd5b5060405162002a1138038062002a118339818101604052810190620000379190620002d4565b838360405162000047906200017f565b6200005492919062000429565b604051809103906000f08015801562000071573d6000803e3d6000fd5b50600260006101000a81548173ffffffffffffffffffffffffffffffffffffffff021916908373ffffffffffffffffffffffffffffffffffffffff1602179055508181600260009054906101000a900473ffffffffffffffffffffffffffffffffffffffff1630604051620000e6906200018d565b620000f594939291906200045d565b604051809103906000f08015801562000112573d6000803e3d6000fd5b50600360006101000a81548173ffffffffffffffffffffffffffffffffffffffff021916908373ffffffffffffffffffffffffffffffffffffffff16021790555085600090805190602001906200016b9291906200019b565b50846001819055505050505050506200068f565b610cfa8062000bff83390190565b61111880620018f983390190565b828054620001a990620005d0565b90600052602060002090601f016020900481019282620001cd576000855562000219565b82601f10620001e857805160ff191683800117855562000219565b8280016001018555821562000219579182015b8281111562000218578251825591602001919060010190620001fb565b5b5090506200022891906200022c565b5090565b5b80821115620002475760008160009055506001016200022d565b5090565b6000620002626200025c84620004e5565b620004b1565b9050828152602081018484840111156200027b57600080fd5b620002888482856200059a565b509392505050565b600082601f830112620002a257600080fd5b8151620002b48482602086016200024b565b91505092915050565b600081519050620002ce8162000675565b92915050565b60008060008060008060c08789031215620002ee57600080fd5b600087015167ffffffffffffffff8111156200030957600080fd5b6200031789828a0162000290565b96505060206200032a89828a01620002bd565b955050604087015167ffffffffffffffff8111156200034857600080fd5b6200035689828a0162000290565b94505060606200036989828a01620002bd565b935050608087015167ffffffffffffffff8111156200038757600080fd5b6200039589828a0162000290565b92505060a0620003a889828a01620002bd565b9150509295509295509295565b620003c08162000534565b82525050565b620003d18162000572565b82525050565b6000620003e48262000518565b620003f0818562000523565b9350620004028185602086016200059a565b6200040d8162000664565b840191505092915050565b620004238162000568565b82525050565b60006040820190508181036000830152620004458185620003d7565b905062000456602083018462000418565b9392505050565b60006080820190508181036000830152620004798187620003d7565b90506200048a602083018662000418565b620004996040830185620003c6565b620004a86060830184620003b5565b95945050505050565b6000604051905081810181811067ffffffffffffffff82111715620004db57620004da62000635565b5b8060405250919050565b600067ffffffffffffffff82111562000503576200050262000635565b5b601f19601f8301169050602081019050919050565b600081519050919050565b600082825260208201905092915050565b6000620005418262000548565b9050919050565b600073ffffffffffffffffffffffffffffffffffffffff82169050919050565b6000819050919050565b60006200057f8262000586565b9050919050565b6000620005938262000548565b9050919050565b60005b83811015620005ba5780820151818401526020810190506200059d565b83811115620005ca576000848401525b50505050565b60006002820490506001821680620005e957607f821691505b602082108114156200060057620005ff62000606565b5b50919050565b7f4e487b7100000000000000000000000000000000000000000000000000000000600052602260045260246000fd5b7f4e487b7100000000000000000000000000000000000000000000000000000000600052604160045260246000fd5b6000601f19601f8301169050919050565b620006808162000568565b81146200068c57600080fd5b50565b610560806200069f6000396000f3fe608060405234801561001057600080fd5b506004361061007d5760003560e01c8063262a9dff1161005b578063262a9dff146100c8578063967e6e65146100e6578063976c19e814610104578063fcf5ed061461010e5761007d565b806306fdde031461008257806312e6d9b0146100a057806322e06e97146100be575b600080fd5b61008a61012c565b60405161009791906103ba565b60405180910390f35b6100a86101ba565b6040516100b5919061039f565b60405180910390f35b6100c66101e0565b005b6100d0610264565b6040516100dd91906103dc565b60405180910390f35b6100ee61026a565b6040516100fb91906103dc565b60405180910390f35b61010c610274565b005b6101166102f8565b6040516101239190610384565b60405180910390f35b60008054610139906104b8565b80601f0160208091040260200160405190810160405280929190818152602001828054610165906104b8565b80156101b25780601f10610187576101008083540402835291602001916101b2565b820191906000526020600020905b81548152906001019060200180831161019557829003601f168201915b505050505081565b600360009054906101000a900473ffffffffffffffffffffffffffffffffffffffff1681565b600260009054906101000a900473ffffffffffffffffffffffffffffffffffffffff1673ffffffffffffffffffffffffffffffffffffffff1663c296784e6040518163ffffffff1660e01b8152600401600060405180830381600087803b15801561024a57600080fd5b505af115801561025e573d6000803e3d6000fd5b50505050565b60015481565b6000600154905090565b600360009054906101000a900473ffffffffffffffffffffffffffffffffffffffff1673ffffffffffffffffffffffffffffffffffffffff1663c296784e6040518163ffffffff1660e01b8152600401600060405180830381600087803b1580156102de57600080fd5b505af11580156102f2573d6000803e3d6000fd5b50505050565b600260009054906101000a900473ffffffffffffffffffffffffffffffffffffffff1681565b6103278161043d565b82525050565b61033681610461565b82525050565b6000610347826103f7565b6103518185610402565b9350610361818560208601610485565b61036a81610519565b840191505092915050565b61037e81610433565b82525050565b6000602082019050610399600083018461031e565b92915050565b60006020820190506103b4600083018461032d565b92915050565b600060208201905081810360008301526103d4818461033c565b905092915050565b60006020820190506103f16000830184610375565b92915050565b600081519050919050565b600082825260208201905092915050565b600073ffffffffffffffffffffffffffffffffffffffff82169050919050565b6000819050919050565b60006104488261044f565b9050919050565b600061045a82610413565b9050919050565b600061046c82610473565b9050919050565b600061047e82610413565b9050919050565b60005b838110156104a3578082015181840152602081019050610488565b838111156104b2576000848401525b50505050565b600060028204905060018216806104d057607f821691505b602082108114156104e4576104e36104ea565b5b50919050565b7f4e487b7100000000000000000000000000000000000000000000000000000000600052602260045260246000fd5b6000601f19601f830116905091905056fea264697066735822122055394c502381f2bb4c8a8a6b86c30773151dbb41f11ae9e5005a4ab4a884183764736f6c6343000800003360806040523480156200001157600080fd5b5060405162000cfa38038062000cfa8339818101604052810190620000379190620002a7565b620000576200004b620000a260201b60201c565b620000aa60201b60201c565b81600190805190602001906200006f9291906200016e565b50806002819055506000600360006101000a81548160ff0219169083151502179055506064600481905550505062000456565b600033905090565b60008060009054906101000a900473ffffffffffffffffffffffffffffffffffffffff169050816000806101000a81548173ffffffffffffffffffffffffffffffffffffffff021916908373ffffffffffffffffffffffffffffffffffffffff1602179055508173ffffffffffffffffffffffffffffffffffffffff168173ffffffffffffffffffffffffffffffffffffffff167f8be0079c531659141344cd1fd0a4f28419497f9722a3daafe3b4186f6b6457e060405160405180910390a35050565b8280546200017c90620003a8565b90600052602060002090601f016020900481019282620001a05760008555620001ec565b82601f10620001bb57805160ff1916838001178555620001ec565b82800160010185558215620001ec579182015b82811115620001eb578251825591602001919060010190620001ce565b5b509050620001fb9190620001ff565b5090565b5b808211156200021a57600081600090555060010162000200565b5090565b6000620002356200022f8462000335565b62000301565b9050828152602081018484840111156200024e57600080fd5b6200025b84828562000372565b509392505050565b600082601f8301126200027557600080fd5b8151620002878482602086016200021e565b91505092915050565b600081519050620002a1816200043c565b92915050565b60008060408385031215620002bb57600080fd5b600083015167ffffffffffffffff811115620002d657600080fd5b620002e48582860162000263565b9250506020620002f78582860162000290565b9150509250929050565b6000604051905081810181811067ffffffffffffffff821117156200032b576200032a6200040d565b5b8060405250919050565b600067ffffffffffffffff8211156200035357620003526200040d565b5b601f19601f8301169050602081019050919050565b6000819050919050565b60005b838110156200039257808201518184015260208101905062000375565b83811115620003a2576000848401525b50505050565b60006002820490506001821680620003c157607f821691505b60208210811415620003d857620003d7620003de565b5b50919050565b7f4e487b7100000000000000000000000000000000000000000000000000000000600052602260045260246000fd5b7f4e487b7100000000000000000000000000000000000000000000000000000000600052604160045260246000fd5b620004478162000368565b81146200045357600080fd5b50565b61089480620004666000396000f3fe608060405234801561001057600080fd5b50600436106100935760003560e01c80638da5cb5b116100665780638da5cb5b146100fc578063942b58a81461011a578063c296784e14610138578063de242ff414610142578063f2fde38b1461016057610093565b806306fdde0314610098578063262a9dff146100b65780633c8f61bf146100d4578063715018a6146100f2575b600080fd5b6100a061017c565b6040516100ad91906106c1565b60405180910390f35b6100be61020a565b6040516100cb9190610723565b60405180910390f35b6100dc610210565b6040516100e991906106a6565b60405180910390f35b6100fa610223565b005b6101046102ab565b604051610111919061068b565b60405180910390f35b6101226102d4565b60405161012f9190610723565b60405180910390f35b6101406102de565b005b61014a610377565b6040516101579190610723565b60405180910390f35b61017a60048036038101906101759190610556565b61037d565b005b60018054610189906107d5565b80601f01602080910402602001604051908101604052809291908181526020018280546101b5906107d5565b80156102025780601f106101d757610100808354040283529160200191610202565b820191906000526020600020905b8154815290600101906020018083116101e557829003601f168201915b505050505081565b60025481565b600360009054906101000a900460ff1681565b61022b610475565b73ffffffffffffffffffffffffffffffffffffffff166102496102ab565b73ffffffffffffffffffffffffffffffffffffffff161461029f576040517f08c379a000000000000000000000000000000000000000000000000000000000815260040161029690610703565b60405180910390fd5b6102a9600061047d565b565b60008060009054906101000a900473ffffffffffffffffffffffffffffffffffffffff16905090565b6000600454905090565b6102e6610475565b73ffffffffffffffffffffffffffffffffffffffff166103046102ab565b73ffffffffffffffffffffffffffffffffffffffff161461035a576040517f08c379a000000000000000000000000000000000000000000000000000000000815260040161035190610703565b60405180910390fd5b6001600360006101000a81548160ff021916908315150217905550565b60045481565b610385610475565b73ffffffffffffffffffffffffffffffffffffffff166103a36102ab565b73ffffffffffffffffffffffffffffffffffffffff16146103f9576040517f08c379a00000000000000000000000000000000000000000000000000000000081526004016103f090610703565b60405180910390fd5b600073ffffffffffffffffffffffffffffffffffffffff168173ffffffffffffffffffffffffffffffffffffffff161415610469576040517f08c379a0000000000000000000000000000000000000000000000000000000008152600401610460906106e3565b60405180910390fd5b6104728161047d565b50565b600033905090565b60008060009054906101000a900473ffffffffffffffffffffffffffffffffffffffff169050816000806101000a81548173ffffffffffffffffffffffffffffffffffffffff021916908373ffffffffffffffffffffffffffffffffffffffff1602179055508173ffffffffffffffffffffffffffffffffffffffff168173ffffffffffffffffffffffffffffffffffffffff167f8be0079c531659141344cd1fd0a4f28419497f9722a3daafe3b4186f6b6457e060405160405180910390a35050565b60008135905061055081610847565b92915050565b60006020828403121561056857600080fd5b600061057684828501610541565b91505092915050565b6105888161075a565b82525050565b6105978161076c565b82525050565b60006105a88261073e565b6105b28185610749565b93506105c28185602086016107a2565b6105cb81610836565b840191505092915050565b60006105e3602683610749565b91507f4f776e61626c653a206e6577206f776e657220697320746865207a65726f206160008301527f64647265737300000000000000000000000000000000000000000000000000006020830152604082019050919050565b6000610649602083610749565b91507f4f776e61626c653a2063616c6c6572206973206e6f7420746865206f776e65726000830152602082019050919050565b61068581610798565b82525050565b60006020820190506106a0600083018461057f565b92915050565b60006020820190506106bb600083018461058e565b92915050565b600060208201905081810360008301526106db818461059d565b905092915050565b600060208201905081810360008301526106fc816105d6565b9050919050565b6000602082019050818103600083015261071c8161063c565b9050919050565b6000602082019050610738600083018461067c565b92915050565b600081519050919050565b600082825260208201905092915050565b600061076582610778565b9050919050565b60008115159050919050565b600073ffffffffffffffffffffffffffffffffffffffff82169050919050565b6000819050919050565b60005b838110156107c05780820151818401526020810190506107a5565b838111156107cf576000848401525b50505050565b600060028204905060018216806107ed57607f821691505b6020821081141561080157610800610807565b5b50919050565b7f4e487b7100000000000000000000000000000000000000000000000000000000600052602260045260246000fd5b6000601f19601f8301169050919050565b6108508161075a565b811461085b57600080fd5b5056fea264697066735822122095103c5979cc61254a5f885a03639e1a1dccf6efdd9f55a4c7410bee05f8bb5b64736f6c6343000800003360806040523480156200001157600080fd5b506040516200111838038062001118833981810160405281019062000037919062000351565b620000576200004b6200011e60201b60201c565b6200012660201b60201c565b83600190805190602001906200006f929190620001ea565b508260028190555081600360006101000a81548173ffffffffffffffffffffffffffffffffffffffff021916908373ffffffffffffffffffffffffffffffffffffffff16021790555080600460006101000a81548173ffffffffffffffffffffffffffffffffffffffff021916908373ffffffffffffffffffffffffffffffffffffffff1602179055506000600460146101000a81548160ff02191690831515021790555050505050620005a7565b600033905090565b60008060009054906101000a900473ffffffffffffffffffffffffffffffffffffffff169050816000806101000a81548173ffffffffffffffffffffffffffffffffffffffff021916908373ffffffffffffffffffffffffffffffffffffffff1602179055508173ffffffffffffffffffffffffffffffffffffffff168173ffffffffffffffffffffffffffffffffffffffff167f8be0079c531659141344cd1fd0a4f28419497f9722a3daafe3b4186f6b6457e060405160405180910390a35050565b828054620001f890620004c5565b90600052602060002090601f0160209004810192826200021c576000855562000268565b82601f106200023757805160ff191683800117855562000268565b8280016001018555821562000268579182015b82811115620002675782518255916020019190600101906200024a565b5b5090506200027791906200027b565b5090565b5b80821115620002965760008160009055506001016200027c565b5090565b6000620002b1620002ab846200040a565b620003d6565b905082815260208101848484011115620002ca57600080fd5b620002d78482856200048f565b509392505050565b600081519050620002f08162000559565b92915050565b600081519050620003078162000573565b92915050565b600082601f8301126200031f57600080fd5b8151620003318482602086016200029a565b91505092915050565b6000815190506200034b816200058d565b92915050565b600080600080608085870312156200036857600080fd5b600085015167ffffffffffffffff8111156200038357600080fd5b62000391878288016200030d565b9450506020620003a4878288016200033a565b9350506040620003b787828801620002f6565b9250506060620003ca87828801620002df565b91505092959194509250565b6000604051905081810181811067ffffffffffffffff821117156200040057620003ff6200052a565b5b8060405250919050565b600067ffffffffffffffff8211156200042857620004276200052a565b5b601f19601f8301169050602081019050919050565b60006200044a8262000465565b9050919050565b60006200045e826200043d565b9050919050565b600073ffffffffffffffffffffffffffffffffffffffff82169050919050565b6000819050919050565b60005b83811015620004af57808201518184015260208101905062000492565b83811115620004bf576000848401525b50505050565b60006002820490506001821680620004de57607f821691505b60208210811415620004f557620004f4620004fb565b5b50919050565b7f4e487b7100000000000000000000000000000000000000000000000000000000600052602260045260246000fd5b7f4e487b7100000000000000000000000000000000000000000000000000000000600052604160045260246000fd5b62000564816200043d565b81146200057057600080fd5b50565b6200057e8162000451565b81146200058a57600080fd5b50565b620005988162000485565b8114620005a457600080fd5b50565b610b6180620005b76000396000f3fe608060405234801561001057600080fd5b50600436106100a95760003560e01c80638da5cb5b116100715780638da5cb5b1461013057806391e0b6dc1461014e578063c296784e1461016c578063decd0acd14610176578063f2fde38b14610194578063fcf5ed06146101b0576100a9565b806306fdde03146100ae578063262a9dff146100cc5780633c8f61bf146100ea5780633df7c86d14610108578063715018a614610126575b600080fd5b6100b66101ce565b6040516100c3919061092f565b60405180910390f35b6100d461025c565b6040516100e19190610991565b60405180910390f35b6100f2610262565b6040516100ff91906108de565b60405180910390f35b610110610275565b60405161011d9190610914565b60405180910390f35b61012e61029b565b005b610138610323565b60405161014591906108c3565b60405180910390f35b61015661034c565b6040516101639190610991565b60405180910390f35b6101746103f3565b005b61017e61048c565b60405161018b9190610991565b60405180910390f35b6101ae60048036038101906101a99190610747565b610533565b005b6101b861062b565b6040516101c591906108f9565b60405180910390f35b600180546101db90610a8b565b80601f016020809104026020016040519081016040528092919081815260200182805461020790610a8b565b80156102545780601f1061022957610100808354040283529160200191610254565b820191906000526020600020905b81548152906001019060200180831161023757829003601f168201915b505050505081565b60025481565b600460149054906101000a900460ff1681565b600460009054906101000a900473ffffffffffffffffffffffffffffffffffffffff1681565b6102a3610651565b73ffffffffffffffffffffffffffffffffffffffff166102c1610323565b73ffffffffffffffffffffffffffffffffffffffff1614610317576040517f08c379a000000000000000000000000000000000000000000000000000000000815260040161030e90610971565b60405180910390fd5b6103216000610659565b565b60008060009054906101000a900473ffffffffffffffffffffffffffffffffffffffff16905090565b6000600460009054906101000a900473ffffffffffffffffffffffffffffffffffffffff1673ffffffffffffffffffffffffffffffffffffffff1663967e6e656040518163ffffffff1660e01b815260040160206040518083038186803b1580156103b657600080fd5b505afa1580156103ca573d6000803e3d6000fd5b505050506040513d601f19601f820116820180604052508101906103ee9190610770565b905090565b6103fb610651565b73ffffffffffffffffffffffffffffffffffffffff16610419610323565b73ffffffffffffffffffffffffffffffffffffffff161461046f576040517f08c379a000000000000000000000000000000000000000000000000000000000815260040161046690610971565b60405180910390fd5b6001600460146101000a81548160ff021916908315150217905550565b6000600360009054906101000a900473ffffffffffffffffffffffffffffffffffffffff1673ffffffffffffffffffffffffffffffffffffffff1663942b58a86040518163ffffffff1660e01b815260040160206040518083038186803b1580156104f657600080fd5b505afa15801561050a573d6000803e3d6000fd5b505050506040513d601f19601f8201168201806040525081019061052e9190610770565b905090565b61053b610651565b73ffffffffffffffffffffffffffffffffffffffff16610559610323565b73ffffffffffffffffffffffffffffffffffffffff16146105af576040517f08c379a00000000000000000000000000000000000000000000000000000000081526004016105a690610971565b60405180910390fd5b600073ffffffffffffffffffffffffffffffffffffffff168173ffffffffffffffffffffffffffffffffffffffff16141561061f576040517f08c379a000000000000000000000000000000000000000000000000000000000815260040161061690610951565b60405180910390fd5b61062881610659565b50565b600360009054906101000a900473ffffffffffffffffffffffffffffffffffffffff1681565b600033905090565b60008060009054906101000a900473ffffffffffffffffffffffffffffffffffffffff169050816000806101000a81548173ffffffffffffffffffffffffffffffffffffffff021916908373ffffffffffffffffffffffffffffffffffffffff1602179055508173ffffffffffffffffffffffffffffffffffffffff168173ffffffffffffffffffffffffffffffffffffffff167f8be0079c531659141344cd1fd0a4f28419497f9722a3daafe3b4186f6b6457e060405160405180910390a35050565b60008135905061072c81610afd565b92915050565b60008151905061074181610b14565b92915050565b60006020828403121561075957600080fd5b60006107678482850161071d565b91505092915050565b60006020828403121561078257600080fd5b600061079084828501610732565b91505092915050565b6107a2816109c8565b82525050565b6107b1816109da565b82525050565b6107c081610a10565b82525050565b6107cf81610a34565b82525050565b60006107e0826109ac565b6107ea81856109b7565b93506107fa818560208601610a58565b61080381610aec565b840191505092915050565b600061081b6026836109b7565b91507f4f776e61626c653a206e6577206f776e657220697320746865207a65726f206160008301527f64647265737300000000000000000000000000000000000000000000000000006020830152604082019050919050565b60006108816020836109b7565b91507f4f776e61626c653a2063616c6c6572206973206e6f7420746865206f776e65726000830152602082019050919050565b6108bd81610a06565b82525050565b60006020820190506108d86000830184610799565b92915050565b60006020820190506108f360008301846107a8565b92915050565b600060208201905061090e60008301846107b7565b92915050565b600060208201905061092960008301846107c6565b92915050565b6000602082019050818103600083015261094981846107d5565b905092915050565b6000602082019050818103600083015261096a8161080e565b9050919050565b6000602082019050818103600083015261098a81610874565b9050919050565b60006020820190506109a660008301846108b4565b92915050565b600081519050919050565b600082825260208201905092915050565b60006109d3826109e6565b9050919050565b60008115159050919050565b600073ffffffffffffffffffffffffffffffffffffffff82169050919050565b6000819050919050565b6000610a1b82610a22565b9050919050565b6000610a2d826109e6565b9050919050565b6000610a3f82610a46565b9050919050565b6000610a51826109e6565b9050919050565b60005b83811015610a76578082015181840152602081019050610a5b565b83811115610a85576000848401525b50505050565b60006002820490506001821680610aa357607f821691505b60208210811415610ab757610ab6610abd565b5b50919050565b7f4e487b7100000000000000000000000000000000000000000000000000000000600052602260045260246000fd5b6000601f19601f8301169050919050565b610b06816109c8565b8114610b1157600080fd5b50565b610b1d81610a06565b8114610b2857600080fd5b5056fea264697066735822122037e43023d859d5db67e145eaa1b1a7891c649b038149a6bf9bf39162603bff3e64736f6c63430008000033",
  "immutableReferences": {},
  "source": "// SPDX-License-Identifier: MIT\r\n\r\npragma solidity ^0.8.0;\r\n\r\n\r\nimport \"./DaughterContract.sol\";\r\nimport \"./SonContract.sol\";\r\n\r\ncontract MomContract {\r\n\r\n  string public name;\r\n  uint public age;\r\n\r\n  DaughterContract public daughter;\r\n  SonContract public son;\r\n\r\n  constructor(\r\n    string memory _momsName,\r\n    uint _momsAge, \r\n    string memory _daughtersName,\r\n    uint _daughtersAge, \r\n    string memory _sonsName,\r\n    uint _sonsAge\r\n  ) \r\n    \r\n  {\r\n\r\n    daughter = new DaughterContract(_daughtersName, _daughtersAge);\r\n    son = new SonContract(_sonsName, _sonsAge, daughter, address(this));\r\n    name = _momsName;\r\n    age = _momsAge;\r\n  }\r\n\r\n  function allowDaughterToDate() public {\r\n    daughter.permissionToDate();\r\n  }\r\n\r\n  function allowSonToDate() public {\r\n    son.permissionToDate();\r\n  }\r\n\r\n  function getAge() public view returns (uint) {\r\n    return age;\r\n  }\r\n}",
  "sourcePath": "D:\\MAIN Code Generative Art for NFT AND Tokens EXamples\\ECR20_Inheritance_contract(parent-child)\\truffle\\contracts\\MomContract.sol",
  "compiler": {
    "name": "solc",
    "version": "0.8.0+commit.c7dfd78e.Emscripten.clang"
  },
  "schemaVersion": "3.4.1",
  "updatedAt": "2021-10-17T11:23:43.768Z",
  "devdoc": {
    "kind": "dev",
    "methods": {},
    "version": 1
  },
  "userdoc": {
    "kind": "user",
    "methods": {},
    "version": 1
  }
}