{
  "contractName": "SonContract",
  "abi": [
    {
      "inputs": [
        {
          "internalType": "string",
          "name": "_sonsName",
          "type": "string"
        },
        {
          "internalType": "uint256",
          "name": "_sonsAge",
          "type": "uint256"
        },
        {
          "internalType": "contract DaughterContract",
          "name": "_daughter",
          "type": "address"
        },
        {
          "internalType": "address",
          "name": "_mom",
          "type": "address"
        }
      ],
      "stateMutability": "nonpayable",
      "type": "constructor"
    },
    {
      "anonymous": false,
      "inputs": [
        {
          "indexed": true,
          "internalType": "address",
          "name": "previousOwner",
          "type": "address"
        },
        {
          "indexed": true,
          "internalType": "address",
          "name": "newOwner",
          "type": "address"
        }
      ],
      "name": "OwnershipTransferred",
      "type": "event"
    },
    {
      "inputs": [],
      "name": "age",
      "outputs": [
        {
          "internalType": "uint256",
          "name": "",
          "type": "uint256"
        }
      ],
      "stateMutability": "view",
      "type": "function"
    },
    {
      "inputs": [],
      "name": "canDate",
      "outputs": [
        {
          "internalType": "bool",
          "name": "",
          "type": "bool"
        }
      ],
      "stateMutability": "view",
      "type": "function"
    },
    {
      "inputs": [],
      "name": "daughter",
      "outputs": [
        {
          "internalType": "contract DaughterContract",
          "name": "",
          "type": "address"
        }
      ],
      "stateMutability": "view",
      "type": "function"
    },
    {
      "inputs": [],
      "name": "mom",
      "outputs": [
        {
          "internalType": "contract MomContract",
          "name": "",
          "type": "address"
        }
      ],
      "stateMutability": "view",
      "type": "function"
    },
    {
      "inputs": [],
      "name": "name",
      "outputs": [
        {
          "internalType": "string",
          "name": "",
          "type": "string"
        }
      ],
      "stateMutability": "view",
      "type": "function"
    },
    {
      "inputs": [],
      "name": "owner",
      "outputs": [
        {
          "internalType": "address",
          "name": "",
          "type": "address"
        }
      ],
      "stateMutability": "view",
      "type": "function"
    },
    {
      "inputs": [],
      "name": "renounceOwnership",
      "outputs": [],
      "stateMutability": "nonpayable",
      "type": "function"
    },
    {
      "inputs": [
        {
          "internalType": "address",
          "name": "newOwner",
          "type": "address"
        }
      ],
      "name": "transferOwnership",
      "outputs": [],
      "stateMutability": "nonpayable",
      "type": "function"
    },
    {
      "inputs": [],
      "name": "permissionToDate",
      "outputs": [],
      "stateMutability": "nonpayable",
      "type": "function"
    },
    {
      "inputs": [],
      "name": "howMuchIsYourAllowance",
      "outputs": [
        {
          "internalType": "uint256",
          "name": "",
          "type": "uint256"
        }
      ],
      "stateMutability": "view",
      "type": "function"
    },
    {
      "inputs": [],
      "name": "howOldAreYou",
      "outputs": [
        {
          "internalType": "uint256",
          "name": "",
          "type": "uint256"
        }
      ],
      "stateMutability": "view",
      "type": "function"
    }
  ],
  "bytecode": "0x60806040523480156200001157600080fd5b506040516200111838038062001118833981810160405281019062000037919062000351565b620000576200004b6200011e60201b60201c565b6200012660201b60201c565b83600190805190602001906200006f929190620001ea565b508260028190555081600360006101000a81548173ffffffffffffffffffffffffffffffffffffffff021916908373ffffffffffffffffffffffffffffffffffffffff16021790555080600460006101000a81548173ffffffffffffffffffffffffffffffffffffffff021916908373ffffffffffffffffffffffffffffffffffffffff1602179055506000600460146101000a81548160ff02191690831515021790555050505050620005a7565b600033905090565b60008060009054906101000a900473ffffffffffffffffffffffffffffffffffffffff169050816000806101000a81548173ffffffffffffffffffffffffffffffffffffffff021916908373ffffffffffffffffffffffffffffffffffffffff1602179055508173ffffffffffffffffffffffffffffffffffffffff168173ffffffffffffffffffffffffffffffffffffffff167f8be0079c531659141344cd1fd0a4f28419497f9722a3daafe3b4186f6b6457e060405160405180910390a35050565b828054620001f890620004c5565b90600052602060002090601f0160209004810192826200021c576000855562000268565b82601f106200023757805160ff191683800117855562000268565b8280016001018555821562000268579182015b82811115620002675782518255916020019190600101906200024a565b5b5090506200027791906200027b565b5090565b5b80821115620002965760008160009055506001016200027c565b5090565b6000620002b1620002ab846200040a565b620003d6565b905082815260208101848484011115620002ca57600080fd5b620002d78482856200048f565b509392505050565b600081519050620002f08162000559565b92915050565b600081519050620003078162000573565b92915050565b600082601f8301126200031f57600080fd5b8151620003318482602086016200029a565b91505092915050565b6000815190506200034b816200058d565b92915050565b600080600080608085870312156200036857600080fd5b600085015167ffffffffffffffff8111156200038357600080fd5b62000391878288016200030d565b9450506020620003a4878288016200033a565b9350506040620003b787828801620002f6565b9250506060620003ca87828801620002df565b91505092959194509250565b6000604051905081810181811067ffffffffffffffff821117156200040057620003ff6200052a565b5b8060405250919050565b600067ffffffffffffffff8211156200042857620004276200052a565b5b601f19601f8301169050602081019050919050565b60006200044a8262000465565b9050919050565b60006200045e826200043d565b9050919050565b600073ffffffffffffffffffffffffffffffffffffffff82169050919050565b6000819050919050565b60005b83811015620004af57808201518184015260208101905062000492565b83811115620004bf576000848401525b50505050565b60006002820490506001821680620004de57607f821691505b60208210811415620004f557620004f4620004fb565b5b50919050565b7f4e487b7100000000000000000000000000000000000000000000000000000000600052602260045260246000fd5b7f4e487b7100000000000000000000000000000000000000000000000000000000600052604160045260246000fd5b62000564816200043d565b81146200057057600080fd5b50565b6200057e8162000451565b81146200058a57600080fd5b50565b620005988162000485565b8114620005a457600080fd5b50565b610b6180620005b76000396000f3fe608060405234801561001057600080fd5b50600436106100a95760003560e01c80638da5cb5b116100715780638da5cb5b1461013057806391e0b6dc1461014e578063c296784e1461016c578063decd0acd14610176578063f2fde38b14610194578063fcf5ed06146101b0576100a9565b806306fdde03146100ae578063262a9dff146100cc5780633c8f61bf146100ea5780633df7c86d14610108578063715018a614610126575b600080fd5b6100b66101ce565b6040516100c3919061092f565b60405180910390f35b6100d461025c565b6040516100e19190610991565b60405180910390f35b6100f2610262565b6040516100ff91906108de565b60405180910390f35b610110610275565b60405161011d9190610914565b60405180910390f35b61012e61029b565b005b610138610323565b60405161014591906108c3565b60405180910390f35b61015661034c565b6040516101639190610991565b60405180910390f35b6101746103f3565b005b61017e61048c565b60405161018b9190610991565b60405180910390f35b6101ae60048036038101906101a99190610747565b610533565b005b6101b861062b565b6040516101c591906108f9565b60405180910390f35b600180546101db90610a8b565b80601f016020809104026020016040519081016040528092919081815260200182805461020790610a8b565b80156102545780601f1061022957610100808354040283529160200191610254565b820191906000526020600020905b81548152906001019060200180831161023757829003601f168201915b505050505081565b60025481565b600460149054906101000a900460ff1681565b600460009054906101000a900473ffffffffffffffffffffffffffffffffffffffff1681565b6102a3610651565b73ffffffffffffffffffffffffffffffffffffffff166102c1610323565b73ffffffffffffffffffffffffffffffffffffffff1614610317576040517f08c379a000000000000000000000000000000000000000000000000000000000815260040161030e90610971565b60405180910390fd5b6103216000610659565b565b60008060009054906101000a900473ffffffffffffffffffffffffffffffffffffffff16905090565b6000600460009054906101000a900473ffffffffffffffffffffffffffffffffffffffff1673ffffffffffffffffffffffffffffffffffffffff1663967e6e656040518163ffffffff1660e01b815260040160206040518083038186803b1580156103b657600080fd5b505afa1580156103ca573d6000803e3d6000fd5b505050506040513d601f19601f820116820180604052508101906103ee9190610770565b905090565b6103fb610651565b73ffffffffffffffffffffffffffffffffffffffff16610419610323565b73ffffffffffffffffffffffffffffffffffffffff161461046f576040517f08c379a000000000000000000000000000000000000000000000000000000000815260040161046690610971565b60405180910390fd5b6001600460146101000a81548160ff021916908315150217905550565b6000600360009054906101000a900473ffffffffffffffffffffffffffffffffffffffff1673ffffffffffffffffffffffffffffffffffffffff1663942b58a86040518163ffffffff1660e01b815260040160206040518083038186803b1580156104f657600080fd5b505afa15801561050a573d6000803e3d6000fd5b505050506040513d601f19601f8201168201806040525081019061052e9190610770565b905090565b61053b610651565b73ffffffffffffffffffffffffffffffffffffffff16610559610323565b73ffffffffffffffffffffffffffffffffffffffff16146105af576040517f08c379a00000000000000000000000000000000000000000000000000000000081526004016105a690610971565b60405180910390fd5b600073ffffffffffffffffffffffffffffffffffffffff168173ffffffffffffffffffffffffffffffffffffffff16141561061f576040517f08c379a000000000000000000000000000000000000000000000000000000000815260040161061690610951565b60405180910390fd5b61062881610659565b50565b600360009054906101000a900473ffffffffffffffffffffffffffffffffffffffff1681565b600033905090565b60008060009054906101000a900473ffffffffffffffffffffffffffffffffffffffff169050816000806101000a81548173ffffffffffffffffffffffffffffffffffffffff021916908373ffffffffffffffffffffffffffffffffffffffff1602179055508173ffffffffffffffffffffffffffffffffffffffff168173ffffffffffffffffffffffffffffffffffffffff167f8be0079c531659141344cd1fd0a4f28419497f9722a3daafe3b4186f6b6457e060405160405180910390a35050565b60008135905061072c81610afd565b92915050565b60008151905061074181610b14565b92915050565b60006020828403121561075957600080fd5b60006107678482850161071d565b91505092915050565b60006020828403121561078257600080fd5b600061079084828501610732565b91505092915050565b6107a2816109c8565b82525050565b6107b1816109da565b82525050565b6107c081610a10565b82525050565b6107cf81610a34565b82525050565b60006107e0826109ac565b6107ea81856109b7565b93506107fa818560208601610a58565b61080381610aec565b840191505092915050565b600061081b6026836109b7565b91507f4f776e61626c653a206e6577206f776e657220697320746865207a65726f206160008301527f64647265737300000000000000000000000000000000000000000000000000006020830152604082019050919050565b60006108816020836109b7565b91507f4f776e61626c653a2063616c6c6572206973206e6f7420746865206f776e65726000830152602082019050919050565b6108bd81610a06565b82525050565b60006020820190506108d86000830184610799565b92915050565b60006020820190506108f360008301846107a8565b92915050565b600060208201905061090e60008301846107b7565b92915050565b600060208201905061092960008301846107c6565b92915050565b6000602082019050818103600083015261094981846107d5565b905092915050565b6000602082019050818103600083015261096a8161080e565b9050919050565b6000602082019050818103600083015261098a81610874565b9050919050565b60006020820190506109a660008301846108b4565b92915050565b600081519050919050565b600082825260208201905092915050565b60006109d3826109e6565b9050919050565b60008115159050919050565b600073ffffffffffffffffffffffffffffffffffffffff82169050919050565b6000819050919050565b6000610a1b82610a22565b9050919050565b6000610a2d826109e6565b9050919050565b6000610a3f82610a46565b9050919050565b6000610a51826109e6565b9050919050565b60005b83811015610a76578082015181840152602081019050610a5b565b83811115610a85576000848401525b50505050565b60006002820490506001821680610aa357607f821691505b60208210811415610ab757610ab6610abd565b5b50919050565b7f4e487b7100000000000000000000000000000000000000000000000000000000600052602260045260246000fd5b6000601f19601f8301169050919050565b610b06816109c8565b8114610b1157600080fd5b50565b610b1d81610a06565b8114610b2857600080fd5b5056fea264697066735822122037e43023d859d5db67e145eaa1b1a7891c649b038149a6bf9bf39162603bff3e64736f6c63430008000033",
  "immutableReferences": {},
  "source": "// SPDX-License-Identifier: MIT\r\n\r\npragma solidity ^0.8.0;\r\n\r\n\r\nimport \"./Ownable.sol\";\r\nimport \"./MomContract.sol\";\r\nimport \"./DaughterContract.sol\";\r\n\r\ncontract SonContract is Ownable {\r\n\r\n  string public name;\r\n  uint public age;\r\n  DaughterContract public daughter;\r\n  MomContract public mom;\r\n  bool public canDate;\r\n\r\n  constructor(\r\n    string memory _sonsName,\r\n    uint _sonsAge,\r\n    DaughterContract _daughter,\r\n    address _mom\r\n  ) \r\n\r\n  {\r\n    name = _sonsName;\r\n    age = _sonsAge;\r\n    daughter = _daughter;\r\n    mom = MomContract(_mom);\r\n    canDate = false;\r\n  }\r\n\r\n  function permissionToDate() public onlyOwner {\r\n    canDate = true;\r\n  }\r\n\r\n  function howMuchIsYourAllowance() public view returns (uint) {\r\n    return daughter.howMuch();\r\n  }\r\n\r\n  function howOldAreYou() public view returns (uint) {\r\n    return mom.getAge();\r\n  }\r\n\r\n}",
  "sourcePath": "D:\\MAIN Code Generative Art for NFT AND Tokens EXamples\\ECR20_Inheritance_contract(parent-child)\\truffle\\contracts\\SonContract.sol",
  "compiler": {
    "name": "solc",
    "version": "0.8.0+commit.c7dfd78e.Emscripten.clang"
  },
  "schemaVersion": "3.4.1",
  "updatedAt": "2021-10-17T11:23:43.786Z",
  "devdoc": {
    "kind": "dev",
    "methods": {
      "owner()": {
        "details": "Returns the address of the current owner."
      },
      "renounceOwnership()": {
        "details": "Leaves the contract without owner. It will not be possible to call `onlyOwner` functions anymore. Can only be called by the current owner. NOTE: Renouncing ownership will leave the contract without an owner, thereby removing any functionality that is only available to the owner."
      },
      "transferOwnership(address)": {
        "details": "Transfers ownership of the contract to a new account (`newOwner`). Can only be called by the current owner."
      }
    },
    "version": 1
  },
  "userdoc": {
    "kind": "user",
    "methods": {},
    "version": 1
  }
}